{
  "contractName": "PredictionMarket",
  "abi": [
    {
      "inputs": [
        {
          "internalType": "address",
          "name": "_oracle",
          "type": "address"
        }
      ],
      "stateMutability": "nonpayable",
      "type": "constructor"
    },
    {
      "inputs": [
        {
          "internalType": "enum PredictionMarket.Side",
          "name": "",
          "type": "uint8"
        }
      ],
      "name": "bets",
      "outputs": [
        {
          "internalType": "uint256",
          "name": "",
          "type": "uint256"
        }
      ],
      "stateMutability": "view",
      "type": "function",
      "constant": true
    },
    {
      "inputs": [
        {
          "internalType": "address",
          "name": "",
          "type": "address"
        },
        {
          "internalType": "enum PredictionMarket.Side",
          "name": "",
          "type": "uint8"
        }
      ],
      "name": "betsPerGambler",
      "outputs": [
        {
          "internalType": "uint256",
          "name": "",
          "type": "uint256"
        }
      ],
      "stateMutability": "view",
      "type": "function",
      "constant": true
    },
    {
      "inputs": [],
      "name": "electionFinished",
      "outputs": [
        {
          "internalType": "bool",
          "name": "",
          "type": "bool"
        }
      ],
      "stateMutability": "view",
      "type": "function",
      "constant": true
    },
    {
      "inputs": [],
      "name": "oracle",
      "outputs": [
        {
          "internalType": "address",
          "name": "",
          "type": "address"
        }
      ],
      "stateMutability": "view",
      "type": "function",
      "constant": true
    },
    {
      "inputs": [],
      "name": "result",
      "outputs": [
        {
          "internalType": "enum PredictionMarket.Side",
          "name": "winner",
          "type": "uint8"
        },
        {
          "internalType": "enum PredictionMarket.Side",
          "name": "loser",
          "type": "uint8"
        }
      ],
      "stateMutability": "view",
      "type": "function",
      "constant": true
    },
    {
      "inputs": [
        {
          "internalType": "enum PredictionMarket.Side",
          "name": "_side",
          "type": "uint8"
        }
      ],
      "name": "placeBets",
      "outputs": [],
      "stateMutability": "payable",
      "type": "function",
      "payable": true
    },
    {
      "inputs": [],
      "name": "withdrawGain",
      "outputs": [],
      "stateMutability": "nonpayable",
      "type": "function"
    },
    {
      "inputs": [
        {
          "internalType": "enum PredictionMarket.Side",
          "name": "_winner",
          "type": "uint8"
        },
        {
          "internalType": "enum PredictionMarket.Side",
          "name": "_loser",
          "type": "uint8"
        }
      ],
      "name": "reportResult",
      "outputs": [],
      "stateMutability": "nonpayable",
      "type": "function"
    }
  ],
  "bytecode": "0x608060405234801561001057600080fd5b50604051610a0b380380610a0b8339818101604052602081101561003357600080fd5b810190808051906020019092919050505080600460006101000a81548173ffffffffffffffffffffffffffffffffffffffff021916908373ffffffffffffffffffffffffffffffffffffffff16021790555050610976806100956000396000f3fe60806040526004361061007b5760003560e01c80637dc0d1d01161004e5780637dc0d1d01461015b5780637e0ecc001461019c5780639d5a3739146101ee578063beab6e7e146102605761007b565b80632b539c86146100805780634ec942b7146100975780635ec24f20146100e25780636537214714610113575b600080fd5b34801561008c57600080fd5b5061009561028d565b005b3480156100a357600080fd5b506100e0600480360360408110156100ba57600080fd5b81019080803560ff169060200190929190803560ff1690602001909291905050506105b2565b005b610111600480360360208110156100f857600080fd5b81019080803560ff169060200190929190505050610749565b005b34801561011f57600080fd5b5061012861087e565b6040518083600181111561013857fe5b815260200182600181111561014957fe5b81526020019250505060405180910390f35b34801561016757600080fd5b506101706108aa565b604051808273ffffffffffffffffffffffffffffffffffffffff16815260200191505060405180910390f35b3480156101a857600080fd5b506101d8600480360360208110156101bf57600080fd5b81019080803560ff1690602001909291905050506108d0565b6040518082815260200191505060405180910390f35b3480156101fa57600080fd5b5061024a6004803603604081101561021157600080fd5b81019080803573ffffffffffffffffffffffffffffffffffffffff169060200190929190803560ff1690602001909291905050506108e8565b6040518082815260200191505060405180910390f35b34801561026c57600080fd5b5061027561090d565b60405180821515815260200191505060405180910390f35b6000600360003373ffffffffffffffffffffffffffffffffffffffff1673ffffffffffffffffffffffffffffffffffffffff1681526020019081526020016000206000600160000160009054906101000a900460ff1660018111156102ee57fe5b60018111156102f957fe5b815260200190815260200160002054905060008111610380576040517f08c379a000000000000000000000000000000000000000000000000000000000815260040180806020018281038252601f8152602001807f796f7520646f206e6f74206861766520616e792077696e6e696e67206265740081525060200191505060405180910390fd5b6001151560008054906101000a900460ff16151514610407576040517f08c379a00000000000000000000000000000000000000000000000000000000081526004018080602001828103825260158152602001807f656c656374696f6e206e6f742066696e6973686564000000000000000000000081525060200191505060405180910390fd5b600060026000600160000160009054906101000a900460ff16600181111561042b57fe5b600181111561043657fe5b8152602001908152602001600020548260026000600160000160019054906101000a900460ff16600181111561046857fe5b600181111561047357fe5b815260200190815260200160002054028161048a57fe5b04820190506000600360003373ffffffffffffffffffffffffffffffffffffffff1673ffffffffffffffffffffffffffffffffffffffff16815260200190815260200160002060008060018111156104de57fe5b60018111156104e957fe5b8152602001908152602001600020819055506000600360003373ffffffffffffffffffffffffffffffffffffffff1673ffffffffffffffffffffffffffffffffffffffff168152602001908152602001600020600060018081111561054a57fe5b600181111561055557fe5b8152602001908152602001600020819055503373ffffffffffffffffffffffffffffffffffffffff166108fc829081150290604051600060405180830381858888f193505050501580156105ad573d6000803e3d6000fd5b505050565b600460009054906101000a900473ffffffffffffffffffffffffffffffffffffffff1673ffffffffffffffffffffffffffffffffffffffff163373ffffffffffffffffffffffffffffffffffffffff1614610658576040517f08c379a000000000000000000000000000000000000000000000000000000000815260040180806020018281038252602281526020018061091f6022913960400191505060405180910390fd5b6000151560008054906101000a900460ff161515146106df576040517f08c379a000000000000000000000000000000000000000000000000000000000815260040180806020018281038252601c8152602001807f656c656374696f6e20697320616c72656164792066696e69736865640000000081525060200191505060405180910390fd5b81600160000160006101000a81548160ff0219169083600181111561070057fe5b021790555080600160000160016101000a81548160ff0219169083600181111561072657fe5b021790555060016000806101000a81548160ff0219169083151502179055505050565b6000151560008054906101000a900460ff161515146107d0576040517f08c379a00000000000000000000000000000000000000000000000000000000081526004018080602001828103825260148152602001807f656c656374696f6e2069732066696e697368656400000000000000000000000081525060200191505060405180910390fd5b34600260008360018111156107e157fe5b60018111156107ec57fe5b81526020019081526020016000206000828254019250508190555034600360003373ffffffffffffffffffffffffffffffffffffffff1673ffffffffffffffffffffffffffffffffffffffff168152602001908152602001600020600083600181111561085557fe5b600181111561086057fe5b81526020019081526020016000206000828254019250508190555050565b60018060000160009054906101000a900460ff16908060000160019054906101000a900460ff16905082565b600460009054906101000a900473ffffffffffffffffffffffffffffffffffffffff1681565b60026020528060005260406000206000915090505481565b6003602052816000526040600020602052806000526040600020600091509150505481565b60008054906101000a900460ff168156fe6f6e6c79206f7261636c652063616e2063616c6c20746869732066756e6374696f6ea264697066735822122038ffd2080c32c2255ea6dc5595ed9a79d3a0447597a79a76fc238aa3fa996ae264736f6c63430007040033",
  "immutableReferences": {},
  "source": "pragma solidity ^0.7.4;\n\ncontract PredictionMarket {\n    enum Side {Biden, Trump}\n    struct Result {\n        Side winner;\n        Side loser;\n    }\n\n    bool public electionFinished;\n    Result public result;\n\n    // how much money has been put on biden or trump\n    mapping(Side => uint256) public bets;\n\n    // how much each gambler has put on biden or trump\n    mapping(address => mapping(Side => uint256)) public betsPerGambler;\n    address public oracle;\n\n    constructor(address _oracle) {\n        oracle = _oracle;\n    }\n\n    function placeBets(Side _side) external payable {\n        require(electionFinished == false, \"election is finished\");\n        bets[_side] += msg.value;\n        betsPerGambler[msg.sender][_side] += msg.value;\n    }\n\n    function withdrawGain() external {\n        uint256 gamblerBet = betsPerGambler[msg.sender][result.winner];\n        require(gamblerBet > 0, \"you do not have any winning bet\");\n        require(electionFinished == true, \"election not finished\");\n\n        // take back all his money in the winner pool\n        // take back his winner pool share of the loser pool\n        uint256 gain =\n            gamblerBet +\n                (bets[result.loser] * gamblerBet) /\n                bets[result.winner];\n\n        betsPerGambler[msg.sender][Side.Biden] = 0;\n        betsPerGambler[msg.sender][Side.Trump] = 0;\n        msg.sender.transfer(gain);\n    }\n\n    function reportResult(Side _winner, Side _loser) external {\n        require(msg.sender == oracle, \"only oracle can call this function\");\n        require(electionFinished == false, \"election is already finished\");\n        result.winner = _winner;\n        result.loser = _loser;\n        electionFinished = true;\n    }\n}\n",
  "sourcePath": "/Users/chohunglin/Project/solidity_projects/prediction_market/contracts/PredictionMarket.sol",
  "compiler": {
    "name": "solc",
    "version": "0.7.4+commit.3f05b770.Emscripten.clang"
  },
  "schemaVersion": "3.3.4",
  "updatedAt": "2021-02-24T14:30:26.897Z",
  "networkType": "ethereum",
  "devdoc": {
    "kind": "dev",
    "methods": {},
    "version": 1
  },
  "userdoc": {
    "kind": "user",
    "methods": {},
    "version": 1
  }
}